{
  "_format": "hh-sol-artifact-1",
  "contractName": "OffchainResolver",
  "sourceName": "contracts/OffchainResolver.sol",
  "abi": [
    {
      "inputs": [
        {
          "internalType": "string",
          "name": "_url",
          "type": "string"
        },
        {
          "internalType": "address[]",
          "name": "_signers",
          "type": "address[]"
        }
      ],
      "stateMutability": "nonpayable",
      "type": "constructor"
    },
    {
      "inputs": [
        {
          "internalType": "address",
          "name": "sender",
          "type": "address"
        },
        {
          "internalType": "string[]",
          "name": "urls",
          "type": "string[]"
        },
        {
          "internalType": "bytes",
          "name": "callData",
          "type": "bytes"
        },
        {
          "internalType": "bytes4",
          "name": "callbackFunction",
          "type": "bytes4"
        },
        {
          "internalType": "bytes",
          "name": "extraData",
          "type": "bytes"
        }
      ],
      "name": "OffchainLookup",
      "type": "error"
    },
    {
      "anonymous": false,
      "inputs": [
        {
          "indexed": false,
          "internalType": "address[]",
          "name": "signers",
          "type": "address[]"
        }
      ],
      "name": "NewSigners",
      "type": "event"
    },
    {
      "inputs": [
        {
          "internalType": "address",
          "name": "target",
          "type": "address"
        },
        {
          "internalType": "uint64",
          "name": "expires",
          "type": "uint64"
        },
        {
          "internalType": "bytes",
          "name": "request",
          "type": "bytes"
        },
        {
          "internalType": "bytes",
          "name": "result",
          "type": "bytes"
        }
      ],
      "name": "makeSignatureHash",
      "outputs": [
        {
          "internalType": "bytes32",
          "name": "",
          "type": "bytes32"
        }
      ],
      "stateMutability": "pure",
      "type": "function"
    },
    {
      "inputs": [
        {
          "internalType": "bytes",
          "name": "name",
          "type": "bytes"
        },
        {
          "internalType": "bytes",
          "name": "data",
          "type": "bytes"
        }
      ],
      "name": "resolve",
      "outputs": [
        {
          "internalType": "bytes",
          "name": "",
          "type": "bytes"
        }
      ],
      "stateMutability": "view",
      "type": "function"
    },
    {
      "inputs": [
        {
          "internalType": "bytes",
          "name": "response",
          "type": "bytes"
        },
        {
          "internalType": "bytes",
          "name": "extraData",
          "type": "bytes"
        }
      ],
      "name": "resolveWithProof",
      "outputs": [
        {
          "internalType": "bytes",
          "name": "",
          "type": "bytes"
        }
      ],
      "stateMutability": "view",
      "type": "function"
    },
    {
      "inputs": [
        {
          "internalType": "address[]",
          "name": "_signers",
          "type": "address[]"
        }
      ],
      "name": "setSigners",
      "outputs": [],
      "stateMutability": "nonpayable",
      "type": "function"
    },
    {
      "inputs": [
        {
          "internalType": "string",
          "name": "_url",
          "type": "string"
        }
      ],
      "name": "setURL",
      "outputs": [],
      "stateMutability": "nonpayable",
      "type": "function"
    },
    {
      "inputs": [
        {
          "internalType": "address",
          "name": "",
          "type": "address"
        }
      ],
      "name": "signers",
      "outputs": [
        {
          "internalType": "bool",
          "name": "",
          "type": "bool"
        }
      ],
      "stateMutability": "view",
      "type": "function"
    },
    {
      "inputs": [
        {
          "internalType": "bytes4",
          "name": "interfaceID",
          "type": "bytes4"
        }
      ],
      "name": "supportsInterface",
      "outputs": [
        {
          "internalType": "bool",
          "name": "",
          "type": "bool"
        }
      ],
      "stateMutability": "pure",
      "type": "function"
    },
    {
      "inputs": [],
      "name": "url",
      "outputs": [
        {
          "internalType": "string",
          "name": "",
          "type": "string"
        }
      ],
      "stateMutability": "view",
      "type": "function"
    }
  ],
  "bytecode": "0x60806040523480156200001157600080fd5b506040516200259e3803806200259e833981810160405281019062000037919062000328565b81600090805190602001906200004f9291906200014d565b5060005b81518110156200010b5760018060008484815181106200009c577f4e487b7100000000000000000000000000000000000000000000000000000000600052603260045260246000fd5b602002602001015173ffffffffffffffffffffffffffffffffffffffff1673ffffffffffffffffffffffffffffffffffffffff16815260200190815260200160002060006101000a81548160ff02191690831515021790555080806200010290620005fb565b91505062000053565b507fab0b9cc3a46b568cb08d985497cde8ab7e18892d01f58db7dc7f0d2af859b2d7816040516200013d919062000430565b60405180910390a1505062000701565b8280546200015b906200058f565b90600052602060002090601f0160209004810192826200017f5760008555620001cb565b82601f106200019a57805160ff1916838001178555620001cb565b82800160010185558215620001cb579182015b82811115620001ca578251825591602001919060010190620001ad565b5b509050620001da9190620001de565b5090565b5b80821115620001f9576000816000905550600101620001df565b5090565b6000620002146200020e846200047d565b62000454565b905080838252602082019050828560208602820111156200023457600080fd5b60005b858110156200026857816200024d8882620002b7565b84526020840193506020830192505060018101905062000237565b5050509392505050565b6000620002896200028384620004ac565b62000454565b905082815260208101848484011115620002a257600080fd5b620002af84828562000559565b509392505050565b600081519050620002c881620006e7565b92915050565b600082601f830112620002e057600080fd5b8151620002f2848260208601620001fd565b91505092915050565b600082601f8301126200030d57600080fd5b81516200031f84826020860162000272565b91505092915050565b600080604083850312156200033c57600080fd5b600083015167ffffffffffffffff8111156200035757600080fd5b6200036585828601620002fb565b925050602083015167ffffffffffffffff8111156200038357600080fd5b6200039185828601620002ce565b9150509250929050565b6000620003a98383620003b5565b60208301905092915050565b620003c0816200051b565b82525050565b6000620003d382620004f2565b620003df81856200050a565b9350620003ec83620004e2565b8060005b83811015620004235781516200040788826200039b565b97506200041483620004fd565b925050600181019050620003f0565b5085935050505092915050565b600060208201905081810360008301526200044c8184620003c6565b905092915050565b60006200046062000473565b90506200046e8282620005c5565b919050565b6000604051905090565b600067ffffffffffffffff8211156200049b576200049a620006a7565b5b602082029050602081019050919050565b600067ffffffffffffffff821115620004ca57620004c9620006a7565b5b620004d582620006d6565b9050602081019050919050565b6000819050602082019050919050565b600081519050919050565b6000602082019050919050565b600082825260208201905092915050565b600062000528826200052f565b9050919050565b600073ffffffffffffffffffffffffffffffffffffffff82169050919050565b6000819050919050565b60005b83811015620005795780820151818401526020810190506200055c565b8381111562000589576000848401525b50505050565b60006002820490506001821680620005a857607f821691505b60208210811415620005bf57620005be62000678565b5b50919050565b620005d082620006d6565b810181811067ffffffffffffffff82111715620005f257620005f1620006a7565b5b80604052505050565b600062000608826200054f565b91507fffffffffffffffffffffffffffffffffffffffffffffffffffffffffffffffff8214156200063e576200063d62000649565b5b600182019050919050565b7f4e487b7100000000000000000000000000000000000000000000000000000000600052601160045260246000fd5b7f4e487b7100000000000000000000000000000000000000000000000000000000600052602260045260246000fd5b7f4e487b7100000000000000000000000000000000000000000000000000000000600052604160045260246000fd5b6000601f19601f8301169050919050565b620006f2816200051b565b8114620006fe57600080fd5b50565b611e8d80620007116000396000f3fe608060405234801561001057600080fd5b50600436106100885760003560e01c8063773434081161005b578063773434081461013b5780639061b92314610157578063a377266214610187578063f4d4d2f8146101a357610088565b806301ffc9a71461008d5780631dcfea09146100bd5780635600f04f146100ed578063736c0d5b1461010b575b600080fd5b6100a760048036038101906100a291906110c2565b6101d3565b6040516100b491906116c7565b60405180910390f35b6100d760048036038101906100d29190610fea565b61024d565b6040516100e491906116e2565b60405180910390f35b6100f5610265565b60405161010291906117cf565b60405180910390f35b61012560048036038101906101209190610fc1565b6102f3565b60405161013291906116c7565b60405180910390f35b61015560048036038101906101509190611233565b610313565b005b610171600480360381019061016c91906110eb565b6103b5565b60405161017e919061177d565b60405180910390f35b6101a1600480360381019061019c919061107d565b6105ed565b005b6101bd60048036038101906101b891906110eb565b61077c565b6040516101ca919061177d565b60405180910390f35b60007f9061b923000000000000000000000000000000000000000000000000000000007bffffffffffffffffffffffffffffffffffffffffffffffffffffffff1916827bffffffffffffffffffffffffffffffffffffffffffffffffffffffff1916148061024657506102458261082a565b5b9050919050565b600061025b85858585610894565b9050949350505050565b6000805461027290611ac6565b80601f016020809104026020016040519081016040528092919081815260200182805461029e90611ac6565b80156102eb5780601f106102c0576101008083540402835291602001916102eb565b820191906000526020600020905b8154815290600101906020018083116102ce57829003601f168201915b505050505081565b60016020528060005260406000206000915054906101000a900460ff1681565b600160003373ffffffffffffffffffffffffffffffffffffffff1673ffffffffffffffffffffffffffffffffffffffff16815260200190815260200160002060009054906101000a900460ff1661039f576040517f08c379a000000000000000000000000000000000000000000000000000000000815260040161039690611831565b60405180910390fd5b8181600091906103b0929190610d84565b505050565b60606000639061b92360e01b868686866040516024016103d89493929190611742565b604051602081830303815290604052907bffffffffffffffffffffffffffffffffffffffffffffffffffffffff19166020820180517bffffffffffffffffffffffffffffffffffffffffffffffffffffffff838183161783525050505090506000600167ffffffffffffffff81111561047a577f4e487b7100000000000000000000000000000000000000000000000000000000600052604160045260246000fd5b6040519080825280602002602001820160405280156104ad57816020015b60608152602001906001900390816104985790505b509050600080546104bd90611ac6565b80601f01602080910402602001604051908101604052809291908181526020018280546104e990611ac6565b80156105365780601f1061050b57610100808354040283529160200191610536565b820191906000526020600020905b81548152906001019060200180831161051957829003601f168201915b505050505081600081518110610575577f4e487b7100000000000000000000000000000000000000000000000000000000600052603260045260246000fd5b602002602001018190525030818363f4d4d2f860e01b853060405160200161059e92919061179f565b6040516020818303038152906040526040517f556f18300000000000000000000000000000000000000000000000000000000081526004016105e495949392919061163b565b60405180910390fd5b600160003373ffffffffffffffffffffffffffffffffffffffff1673ffffffffffffffffffffffffffffffffffffffff16815260200190815260200160002060009054906101000a900460ff16610679576040517f08c379a000000000000000000000000000000000000000000000000000000000815260040161067090611831565b60405180910390fd5b60005b8282905081101561073e5760018060008585858181106106c5577f4e487b7100000000000000000000000000000000000000000000000000000000600052603260045260246000fd5b90506020020160208101906106da9190610fc1565b73ffffffffffffffffffffffffffffffffffffffff1673ffffffffffffffffffffffffffffffffffffffff16815260200190815260200160002060006101000a81548160ff021916908315150217905550808061073690611b29565b91505061067c565b507fab0b9cc3a46b568cb08d985497cde8ab7e18892d01f58db7dc7f0d2af859b2d782826040516107709291906116a3565b60405180910390a15050565b606060008061078d858589896108db565b91509150600160008373ffffffffffffffffffffffffffffffffffffffff1673ffffffffffffffffffffffffffffffffffffffff16815260200190815260200160002060009054906101000a900460ff1661081d576040517f08c379a000000000000000000000000000000000000000000000000000000000815260040161081490611871565b60405180910390fd5b8092505050949350505050565b60007f01ffc9a7000000000000000000000000000000000000000000000000000000007bffffffffffffffffffffffffffffffffffffffffffffffffffffffff1916827bffffffffffffffffffffffffffffffffffffffffffffffffffffffff1916149050919050565b60008484848051906020012084805190602001206040516020016108bb94939291906115e2565b604051602081830303815290604052805190602001209050949350505050565b60006060600080600086868101906108f391906111b4565b9250925092506000808a8a81019061090b9190611160565b9150915060006109266109208387868a610894565b8561098a565b9050428567ffffffffffffffff161015610975576040517f08c379a000000000000000000000000000000000000000000000000000000000815260040161096c90611891565b60405180910390fd5b80869750975050505050505094509492505050565b600080600061099985856109b1565b915091506109a681610a03565b819250505092915050565b6000806041835114156109f35760008060006020860151925060408601519150606086015160001a90506109e787828585610ca1565b945094505050506109fc565b60006002915091505b9250929050565b60006004811115610a3d577f4e487b7100000000000000000000000000000000000000000000000000000000600052602160045260246000fd5b816004811115610a76577f4e487b7100000000000000000000000000000000000000000000000000000000600052602160045260246000fd5b1415610a8157610c9e565b60016004811115610abb577f4e487b7100000000000000000000000000000000000000000000000000000000600052602160045260246000fd5b816004811115610af4577f4e487b7100000000000000000000000000000000000000000000000000000000600052602160045260246000fd5b1415610b35576040517f08c379a0000000000000000000000000000000000000000000000000000000008152600401610b2c906117f1565b60405180910390fd5b60026004811115610b6f577f4e487b7100000000000000000000000000000000000000000000000000000000600052602160045260246000fd5b816004811115610ba8577f4e487b7100000000000000000000000000000000000000000000000000000000600052602160045260246000fd5b1415610be9576040517f08c379a0000000000000000000000000000000000000000000000000000000008152600401610be090611811565b60405180910390fd5b60036004811115610c23577f4e487b7100000000000000000000000000000000000000000000000000000000600052602160045260246000fd5b816004811115610c5c577f4e487b7100000000000000000000000000000000000000000000000000000000600052602160045260246000fd5b1415610c9d576040517f08c379a0000000000000000000000000000000000000000000000000000000008152600401610c9490611851565b60405180910390fd5b5b50565b6000807f7fffffffffffffffffffffffffffffff5d576e7357a4501ddfe92f46681b20a08360001c1115610cdc576000600391509150610d7b565b600060018787878760405160008152602001604052604051610d0194939291906116fd565b6020604051602081039080840390855afa158015610d23573d6000803e3d6000fd5b505050602060405103519050600073ffffffffffffffffffffffffffffffffffffffff168173ffffffffffffffffffffffffffffffffffffffff161415610d7257600060019250925050610d7b565b80600092509250505b94509492505050565b828054610d9090611ac6565b90600052602060002090601f016020900481019282610db25760008555610df9565b82601f10610dcb57803560ff1916838001178555610df9565b82800160010185558215610df9579182015b82811115610df8578235825591602001919060010190610ddd565b5b509050610e069190610e0a565b5090565b5b80821115610e23576000816000905550600101610e0b565b5090565b6000610e3a610e35846118d6565b6118b1565b905082815260208101848484011115610e5257600080fd5b610e5d848285611a84565b509392505050565b600081359050610e7481611dfb565b92915050565b600081359050610e8981611e12565b92915050565b60008083601f840112610ea157600080fd5b8235905067ffffffffffffffff811115610eba57600080fd5b602083019150836020820283011115610ed257600080fd5b9250929050565b600081359050610ee881611e29565b92915050565b60008083601f840112610f0057600080fd5b8235905067ffffffffffffffff811115610f1957600080fd5b602083019150836001820283011115610f3157600080fd5b9250929050565b600082601f830112610f4957600080fd5b8135610f59848260208601610e27565b91505092915050565b60008083601f840112610f7457600080fd5b8235905067ffffffffffffffff811115610f8d57600080fd5b602083019150836001820283011115610fa557600080fd5b9250929050565b600081359050610fbb81611e40565b92915050565b600060208284031215610fd357600080fd5b6000610fe184828501610e65565b91505092915050565b6000806000806080858703121561100057600080fd5b600061100e87828801610e65565b945050602061101f87828801610fac565b935050604085013567ffffffffffffffff81111561103c57600080fd5b61104887828801610f38565b925050606085013567ffffffffffffffff81111561106557600080fd5b61107187828801610f38565b91505092959194509250565b6000806020838503121561109057600080fd5b600083013567ffffffffffffffff8111156110aa57600080fd5b6110b685828601610e8f565b92509250509250929050565b6000602082840312156110d457600080fd5b60006110e284828501610ed9565b91505092915050565b6000806000806040858703121561110157600080fd5b600085013567ffffffffffffffff81111561111b57600080fd5b61112787828801610eee565b9450945050602085013567ffffffffffffffff81111561114657600080fd5b61115287828801610eee565b925092505092959194509250565b6000806040838503121561117357600080fd5b600083013567ffffffffffffffff81111561118d57600080fd5b61119985828601610f38565b92505060206111aa85828601610e7a565b9150509250929050565b6000806000606084860312156111c957600080fd5b600084013567ffffffffffffffff8111156111e357600080fd5b6111ef86828701610f38565b935050602061120086828701610fac565b925050604084013567ffffffffffffffff81111561121d57600080fd5b61122986828701610f38565b9150509250925092565b6000806020838503121561124657600080fd5b600083013567ffffffffffffffff81111561126057600080fd5b61126c85828601610f62565b92509250509250929050565b600061128483836112a4565b60208301905092915050565b600061129c8383611455565b905092915050565b6112ad816119d3565b82525050565b6112bc816119d3565b82525050565b6112d36112ce826119d3565b611b72565b82525050565b60006112e5838561195c565b93506112f082611907565b8060005b858110156113295761130682846119bc565b6113108882611278565b975061131b83611942565b9250506001810190506112f4565b5085925050509392505050565b600061134182611921565b61134b818561196d565b93508360208202850161135d85611911565b8060005b85811015611399578484038952815161137a8582611290565b94506113858361194f565b925060208a01995050600181019050611361565b50829750879550505050505092915050565b6113b4816119f7565b82525050565b6113c381611a03565b82525050565b6113da6113d582611a03565b611b84565b82525050565b6113e981611a0d565b82525050565b60006113fb838561197e565b9350611408838584611a84565b61141183611c3f565b840190509392505050565b60006114278261192c565b611431818561197e565b9350611441818560208601611a93565b61144a81611c3f565b840191505092915050565b600061146082611937565b61146a818561198f565b935061147a818560208601611a93565b61148381611c3f565b840191505092915050565b600061149982611937565b6114a381856119a0565b93506114b3818560208601611a93565b6114bc81611c3f565b840191505092915050565b60006114d46018836119a0565b91506114df82611c6a565b602082019050919050565b60006114f7601f836119a0565b915061150282611c93565b602082019050919050565b600061151a601e836119a0565b915061152582611cbc565b602082019050919050565b600061153d6022836119a0565b915061154882611ce5565b604082019050919050565b60006115606002836119b1565b915061156b82611d34565b600282019050919050565b60006115836023836119a0565b915061158e82611d5d565b604082019050919050565b60006115a66024836119a0565b91506115b182611dac565b604082019050919050565b6115cd6115c882611a63565b611ba0565b82525050565b6115dc81611a77565b82525050565b60006115ed82611553565b91506115f982876112c2565b60148201915061160982866115bc565b60088201915061161982856113c9565b60208201915061162982846113c9565b60208201915081905095945050505050565b600060a08201905061165060008301886112b3565b81810360208301526116628187611336565b90508181036040830152611676818661141c565b905061168560608301856113e0565b8181036080830152611697818461141c565b90509695505050505050565b600060208201905081810360008301526116be8184866112d9565b90509392505050565b60006020820190506116dc60008301846113ab565b92915050565b60006020820190506116f760008301846113ba565b92915050565b600060808201905061171260008301876113ba565b61171f60208301866115d3565b61172c60408301856113ba565b61173960608301846113ba565b95945050505050565b6000604082019050818103600083015261175d8186886113ef565b905081810360208301526117728184866113ef565b905095945050505050565b60006020820190508181036000830152611797818461141c565b905092915050565b600060408201905081810360008301526117b9818561141c565b90506117c860208301846112b3565b9392505050565b600060208201905081810360008301526117e9818461148e565b905092915050565b6000602082019050818103600083015261180a816114c7565b9050919050565b6000602082019050818103600083015261182a816114ea565b9050919050565b6000602082019050818103600083015261184a8161150d565b9050919050565b6000602082019050818103600083015261186a81611530565b9050919050565b6000602082019050818103600083015261188a81611576565b9050919050565b600060208201905081810360008301526118aa81611599565b9050919050565b60006118bb6118cc565b90506118c78282611af8565b919050565b6000604051905090565b600067ffffffffffffffff8211156118f1576118f0611c10565b5b6118fa82611c3f565b9050602081019050919050565b6000819050919050565b6000819050602082019050919050565b600081519050919050565b600081519050919050565b600081519050919050565b6000602082019050919050565b6000602082019050919050565b600082825260208201905092915050565b600082825260208201905092915050565b600082825260208201905092915050565b600082825260208201905092915050565b600082825260208201905092915050565b600081905092915050565b60006119cb6020840184610e65565b905092915050565b60006119de82611a39565b9050919050565b60006119f082611a39565b9050919050565b60008115159050919050565b6000819050919050565b60007fffffffff0000000000000000000000000000000000000000000000000000000082169050919050565b600073ffffffffffffffffffffffffffffffffffffffff82169050919050565b6000819050919050565b600067ffffffffffffffff82169050919050565b600060ff82169050919050565b82818337600083830152505050565b60005b83811015611ab1578082015181840152602081019050611a96565b83811115611ac0576000848401525b50505050565b60006002820490506001821680611ade57607f821691505b60208210811415611af257611af1611be1565b5b50919050565b611b0182611c3f565b810181811067ffffffffffffffff82111715611b2057611b1f611c10565b5b80604052505050565b6000611b3482611a59565b91507fffffffffffffffffffffffffffffffffffffffffffffffffffffffffffffffff821415611b6757611b66611bb2565b5b600182019050919050565b6000611b7d82611b8e565b9050919050565b6000819050919050565b6000611b9982611c5d565b9050919050565b6000611bab82611c50565b9050919050565b7f4e487b7100000000000000000000000000000000000000000000000000000000600052601160045260246000fd5b7f4e487b7100000000000000000000000000000000000000000000000000000000600052602260045260246000fd5b7f4e487b7100000000000000000000000000000000000000000000000000000000600052604160045260246000fd5b6000601f19601f8301169050919050565b60008160c01b9050919050565b60008160601b9050919050565b7f45434453413a20696e76616c6964207369676e61747572650000000000000000600082015250565b7f45434453413a20696e76616c6964207369676e6174757265206c656e67746800600082015250565b7f4f6666636861696e5265736f6c7665723a204e6f742061207369676e65720000600082015250565b7f45434453413a20696e76616c6964207369676e6174757265202773272076616c60008201527f7565000000000000000000000000000000000000000000000000000000000000602082015250565b7f1900000000000000000000000000000000000000000000000000000000000000600082015250565b7f5369676e617475726556657269666965723a20496e76616c696420736967617460008201527f7572650000000000000000000000000000000000000000000000000000000000602082015250565b7f5369676e617475726556657269666965723a205369676e61747572652065787060008201527f6972656400000000000000000000000000000000000000000000000000000000602082015250565b611e04816119d3565b8114611e0f57600080fd5b50565b611e1b816119e5565b8114611e2657600080fd5b50565b611e3281611a0d565b8114611e3d57600080fd5b50565b611e4981611a63565b8114611e5457600080fd5b5056fea26469706673582212209ec60d0d2322def09eb1437282b2a44bc0ec6892b34161f4ea52708ea50533f964736f6c63430008040033",
  "linkReferences": {},
  "deployedLinkReferences": {}
}